      fixMsg1 = "8=FIX.4.2\0019=12\00135=A\001108=30\00110=31\001";
      fixMsg2 = "8=FIX.4.2\0019=17\00135=4\00136=88\001123=Y\00110=34\001";
      fixMsg3 = "8=FIX.4.2\0019=19\00135=A\001108=30\0019710=8\00110=31\001";
