 8=FIX.4.2|9=42|35=0|49=A|56=B|34=12|52=20100304-07:59:30|10=185| 
